{
    "contractName": "IntegerDataType",
    "abi": [
        {
            "inputs": [],
            "name": "a",
            "outputs": [
                {
                    "internalType": "uint256",
                    "name": "",
                    "type": "uint256"
                }
            ],
            "stateMutability": "view",
            "type": "function"
        },
        {
            "inputs": [],
            "name": "arithmetic",
            "outputs": [
                {
                    "internalType": "uint256",
                    "name": "",
                    "type": "uint256"
                },
                {
                    "internalType": "uint256",
                    "name": "",
                    "type": "uint256"
                },
                {
                    "internalType": "uint256",
                    "name": "",
                    "type": "uint256"
                },
                {
                    "internalType": "uint256",
                    "name": "",
                    "type": "uint256"
                }
            ],
            "stateMutability": "view",
            "type": "function"
        },
        {
            "inputs": [],
            "name": "b",
            "outputs": [
                {
                    "internalType": "uint256",
                    "name": "",
                    "type": "uint256"
                }
            ],
            "stateMutability": "view",
            "type": "function"
        },
        {
            "inputs": [],
            "name": "c",
            "outputs": [
                {
                    "internalType": "int256",
                    "name": "",
                    "type": "int256"
                }
            ],
            "stateMutability": "view",
            "type": "function"
        }
    ],
    "bytecode": "6080806040523461002557600a6000556001805560001960025561018d908161002b8239f35b600080fdfe608080604052600436101561001357600080fd5b600090813560e01c9081630dbe671f14610139575080634df7e3d01461011b578063980a67fd1461006d5763c3da42b81461004d57600080fd5b3461006a578060031936011261006a576020600254604051908152f35b80fd5b503461006a578060031936011261006a57805460015480820191828111610107578181038181116100f357828202908282048414831517156100df5783156100cb576080955060405194855260208501526040840152046060820152f35b634e487b7160e01b86526012600452602486fd5b634e487b7160e01b86526011600452602486fd5b634e487b7160e01b85526011600452602485fd5b634e487b7160e01b84526011600452602484fd5b503461006a578060031936011261006a576020600154604051908152f35b905034610153578160031936011261015357602091548152f35b5080fdfea26469706673582212209e0a8a4acd2fb68c5e78dd82404bfb724caff52814df90670602478f1d3c50c964736f6c63430008120033",
    "sourcePath": "d:/web3/course-solidity-main/course-solidity/contracts/chapter-9/test.sol",
    "compiler": {
        "name": "solc",
        "version": "0.8.18+commit.87f61d96"
    },
    "functionHashes": {
        "a()": "0dbe671f",
        "arithmetic()": "980a67fd",
        "b()": "4df7e3d0",
        "c()": "c3da42b8"
    },
    "gasEstimates": {
        "creation": {
            "codeDepositCost": "79400",
            "executionCost": "66456",
            "totalCost": "145856"
        },
        "external": {
            "a()": "2258",
            "arithmetic()": "4608",
            "b()": "2288",
            "c()": "2327"
        }
    }
}