{
    "contractName": "ArtistCoin",
    "abi": [
        {
            "inputs": [
                {
                    "internalType": "string",
                    "name": "name",
                    "type": "string"
                },
                {
                    "internalType": "string",
                    "name": "symbol",
                    "type": "string"
                }
            ],
            "stateMutability": "nonpayable",
            "type": "constructor"
        },
        {
            "anonymous": false,
            "inputs": [
                {
                    "indexed": true,
                    "internalType": "address",
                    "name": "owner",
                    "type": "address"
                },
                {
                    "indexed": true,
                    "internalType": "address",
                    "name": "spender",
                    "type": "address"
                },
                {
                    "indexed": false,
                    "internalType": "uint256",
                    "name": "value",
                    "type": "uint256"
                }
            ],
            "name": "Approval",
            "type": "event"
        },
        {
            "anonymous": false,
            "inputs": [
                {
                    "indexed": true,
                    "internalType": "address",
                    "name": "to",
                    "type": "address"
                },
                {
                    "indexed": false,
                    "internalType": "uint256",
                    "name": "weiAmount",
                    "type": "uint256"
                }
            ],
            "name": "DividendWithdrawn",
            "type": "event"
        },
        {
            "anonymous": false,
            "inputs": [
                {
                    "indexed": true,
                    "internalType": "address",
                    "name": "from",
                    "type": "address"
                },
                {
                    "indexed": false,
                    "internalType": "uint256",
                    "name": "weiAmount",
                    "type": "uint256"
                }
            ],
            "name": "DividendsDistributed",
            "type": "event"
        },
        {
            "anonymous": false,
            "inputs": [
                {
                    "indexed": true,
                    "internalType": "address",
                    "name": "previousOwner",
                    "type": "address"
                },
                {
                    "indexed": true,
                    "internalType": "address",
                    "name": "newOwner",
                    "type": "address"
                }
            ],
            "name": "OwnershipTransferred",
            "type": "event"
        },
        {
            "anonymous": false,
            "inputs": [
                {
                    "indexed": true,
                    "internalType": "address",
                    "name": "from",
                    "type": "address"
                },
                {
                    "indexed": true,
                    "internalType": "address",
                    "name": "to",
                    "type": "address"
                },
                {
                    "indexed": false,
                    "internalType": "uint256",
                    "name": "value",
                    "type": "uint256"
                }
            ],
            "name": "Transfer",
            "type": "event"
        },
        {
            "inputs": [],
            "name": "MAX_SUPPLY",
            "outputs": [
                {
                    "internalType": "uint256",
                    "name": "",
                    "type": "uint256"
                }
            ],
            "stateMutability": "view",
            "type": "function"
        },
        {
            "inputs": [
                {
                    "internalType": "address",
                    "name": "_owner",
                    "type": "address"
                }
            ],
            "name": "accumulativeDividendOf",
            "outputs": [
                {
                    "internalType": "uint256",
                    "name": "",
                    "type": "uint256"
                }
            ],
            "stateMutability": "view",
            "type": "function"
        },
        {
            "inputs": [
                {
                    "internalType": "address",
                    "name": "owner",
                    "type": "address"
                },
                {
                    "internalType": "address",
                    "name": "spender",
                    "type": "address"
                }
            ],
            "name": "allowance",
            "outputs": [
                {
                    "internalType": "uint256",
                    "name": "",
                    "type": "uint256"
                }
            ],
            "stateMutability": "view",
            "type": "function"
        },
        {
            "inputs": [
                {
                    "internalType": "address",
                    "name": "spender",
                    "type": "address"
                },
                {
                    "internalType": "uint256",
                    "name": "amount",
                    "type": "uint256"
                }
            ],
            "name": "approve",
            "outputs": [
                {
                    "internalType": "bool",
                    "name": "",
                    "type": "bool"
                }
            ],
            "stateMutability": "nonpayable",
            "type": "function"
        },
        {
            "inputs": [
                {
                    "internalType": "address",
                    "name": "account",
                    "type": "address"
                }
            ],
            "name": "balanceOf",
            "outputs": [
                {
                    "internalType": "uint256",
                    "name": "",
                    "type": "uint256"
                }
            ],
            "stateMutability": "view",
            "type": "function"
        },
        {
            "inputs": [],
            "name": "collect",
            "outputs": [],
            "stateMutability": "nonpayable",
            "type": "function"
        },
        {
            "inputs": [],
            "name": "decimals",
            "outputs": [
                {
                    "internalType": "uint8",
                    "name": "",
                    "type": "uint8"
                }
            ],
            "stateMutability": "view",
            "type": "function"
        },
        {
            "inputs": [
                {
                    "internalType": "address",
                    "name": "spender",
                    "type": "address"
                },
                {
                    "internalType": "uint256",
                    "name": "subtractedValue",
                    "type": "uint256"
                }
            ],
            "name": "decreaseAllowance",
            "outputs": [
                {
                    "internalType": "bool",
                    "name": "",
                    "type": "bool"
                }
            ],
            "stateMutability": "nonpayable",
            "type": "function"
        },
        {
            "inputs": [],
            "name": "distributeDividends",
            "outputs": [],
            "stateMutability": "payable",
            "type": "function"
        },
        {
            "inputs": [
                {
                    "internalType": "address",
                    "name": "_owner",
                    "type": "address"
                }
            ],
            "name": "dividendOf",
            "outputs": [
                {
                    "internalType": "uint256",
                    "name": "",
                    "type": "uint256"
                }
            ],
            "stateMutability": "view",
            "type": "function"
        },
        {
            "inputs": [
                {
                    "internalType": "address",
                    "name": "spender",
                    "type": "address"
                },
                {
                    "internalType": "uint256",
                    "name": "addedValue",
                    "type": "uint256"
                }
            ],
            "name": "increaseAllowance",
            "outputs": [
                {
                    "internalType": "bool",
                    "name": "",
                    "type": "bool"
                }
            ],
            "stateMutability": "nonpayable",
            "type": "function"
        },
        {
            "inputs": [],
            "name": "locked",
            "outputs": [
                {
                    "internalType": "bool",
                    "name": "",
                    "type": "bool"
                }
            ],
            "stateMutability": "view",
            "type": "function"
        },
        {
            "inputs": [
                {
                    "internalType": "address",
                    "name": "to_",
                    "type": "address"
                }
            ],
            "name": "mint",
            "outputs": [],
            "stateMutability": "payable",
            "type": "function"
        },
        {
            "inputs": [],
            "name": "name",
            "outputs": [
                {
                    "internalType": "string",
                    "name": "",
                    "type": "string"
                }
            ],
            "stateMutability": "view",
            "type": "function"
        },
        {
            "inputs": [],
            "name": "owner",
            "outputs": [
                {
                    "internalType": "address",
                    "name": "",
                    "type": "address"
                }
            ],
            "stateMutability": "view",
            "type": "function"
        },
        {
            "inputs": [],
            "name": "ownerWithdrawable",
            "outputs": [
                {
                    "internalType": "uint256",
                    "name": "",
                    "type": "uint256"
                }
            ],
            "stateMutability": "view",
            "type": "function"
        },
        {
            "inputs": [],
            "name": "renounceOwnership",
            "outputs": [],
            "stateMutability": "nonpayable",
            "type": "function"
        },
        {
            "inputs": [],
            "name": "symbol",
            "outputs": [
                {
                    "internalType": "string",
                    "name": "",
                    "type": "string"
                }
            ],
            "stateMutability": "view",
            "type": "function"
        },
        {
            "inputs": [],
            "name": "toggleLock",
            "outputs": [],
            "stateMutability": "nonpayable",
            "type": "function"
        },
        {
            "inputs": [],
            "name": "totalSupply",
            "outputs": [
                {
                    "internalType": "uint256",
                    "name": "",
                    "type": "uint256"
                }
            ],
            "stateMutability": "view",
            "type": "function"
        },
        {
            "inputs": [
                {
                    "internalType": "address",
                    "name": "to",
                    "type": "address"
                },
                {
                    "internalType": "uint256",
                    "name": "amount",
                    "type": "uint256"
                }
            ],
            "name": "transfer",
            "outputs": [
                {
                    "internalType": "bool",
                    "name": "",
                    "type": "bool"
                }
            ],
            "stateMutability": "nonpayable",
            "type": "function"
        },
        {
            "inputs": [
                {
                    "internalType": "address",
                    "name": "from",
                    "type": "address"
                },
                {
                    "internalType": "address",
                    "name": "to",
                    "type": "address"
                },
                {
                    "internalType": "uint256",
                    "name": "amount",
                    "type": "uint256"
                }
            ],
            "name": "transferFrom",
            "outputs": [
                {
                    "internalType": "bool",
                    "name": "",
                    "type": "bool"
                }
            ],
            "stateMutability": "nonpayable",
            "type": "function"
        },
        {
            "inputs": [
                {
                    "internalType": "address",
                    "name": "newOwner",
                    "type": "address"
                }
            ],
            "name": "transferOwnership",
            "outputs": [],
            "stateMutability": "nonpayable",
            "type": "function"
        },
        {
            "inputs": [],
            "name": "withdrawDividend",
            "outputs": [],
            "stateMutability": "nonpayable",
            "type": "function"
        },
        {
            "inputs": [
                {
                    "internalType": "address",
                    "name": "_owner",
                    "type": "address"
                }
            ],
            "name": "withdrawableDividendOf",
            "outputs": [
                {
                    "internalType": "uint256",
                    "name": "",
                    "type": "uint256"
                }
            ],
            "stateMutability": "view",
            "type": "function"
        },
        {
            "inputs": [
                {
                    "internalType": "address",
                    "name": "_owner",
                    "type": "address"
                }
            ],
            "name": "withdrawnDividendOf",
            "outputs": [
                {
                    "internalType": "uint256",
                    "name": "",
                    "type": "uint256"
                }
            ],
            "stateMutability": "view",
            "type": "function"
        },
        {
            "stateMutability": "payable",
            "type": "receive"
        }
    ],
    "bytecode": "608060405234620003685762001494803803806200001d816200036d565b928339810190604081830312620003685780516001600160401b0392908381116200036857816200005091840162000393565b916020918282015185811162000368576200006c920162000393565b92825181811162000268576003908154906001958683811c931680156200035d575b8684101462000347578190601f93848111620002f1575b5086908483116001146200028a576000926200027e575b505060001982851b1c191690861b1782555b8551928311620002685760049384548681811c911680156200025d575b828210146200024857828111620001fd575b50809184116001146200018f57508293949560009362000183575b505082851b92600019911b1c19161790555b60058054336001600160a01b0319821681179092556040519291906001600160a01b03167f8be0079c531659141344cd1fd0a4f28419497f9722a3daafe3b4186f6b6457e0600080a360065561108e9081620004068239f35b01519150388062000118565b9190601f198416968560005283600020936000905b898210620001e557505084879897969710620001ca575b50505050811b0190556200012a565b01519060f884600019921b161c1916905538808080620001bb565b808985978294968601518155019601930190620001a4565b85600052816000208380870160051c8201928488106200023e575b0160051c019087905b82811062000231575050620000fd565b6000815501879062000221565b9250819262000218565b602286634e487b7160e01b6000525260246000fd5b90607f1690620000eb565b634e487b7160e01b600052604160045260246000fd5b015190503880620000bc565b90889350601f1983169186600052886000209260005b8a828210620002da5750508411620002c1575b505050811b018255620000ce565b015160001983871b60f8161c19169055388080620002b3565b8385015186558c97909501949384019301620002a0565b90915084600052866000208480850160051c8201928986106200033d575b918a91869594930160051c01915b8281106200032d575050620000a5565b600081558594508a91016200031d565b925081926200030f565b634e487b7160e01b600052602260045260246000fd5b92607f16926200008e565b600080fd5b6040519190601f01601f191682016001600160401b038111838210176200026857604052565b919080601f84011215620003685782516001600160401b0381116200026857602090620003c9601f8201601f191683016200036d565b92818452828287010111620003685760005b818110620003f157508260009394955001015290565b8581018301518482018401528201620003db56fe604060808152600480361015610027575b5050361561001d57600080fd5b610025610bed565b005b600091823560e01c91826303c8330214610b2657826306fdde0314610a4c578263095ea7b314610a2257826318160ddd14610a0357826323b872dd1461093a57826327ce014714610914578263313ce567146108f857826332cb6b0c146108d457826339509351146108845782633ec789cf146108655782636a474002146107775782636a6278421461062c57826370a08231146105f5578263715018a6146105985782638da5cb5b1461056f57826391b89fba1461038057826395d89b4114610450578263a457c2d7146103ad578263a8b9d24014610380578263a9059cbb1461034f578263aafd847a14610317578263cf309012146102f3578263dd62ed3e146102aa578263e522538114610257578263f2fde38b1461018657505063ff9413d8146101555780610010565b3461018357806003193601126101835761016d610cff565b60095460ff80821615169060ff19161760095580f35b80fd5b90915034610253576020366003190112610253576101a2610b86565b906101ab610cff565b6001600160a01b03918216928315610201575050600554826bffffffffffffffffffffffff60a01b821617600555167f8be0079c531659141344cd1fd0a4f28419497f9722a3daafe3b4186f6b6457e08380a380f35b906020608492519162461bcd60e51b8352820152602660248201527f4f776e61626c653a206e6577206f776e657220697320746865207a65726f206160448201526564647265737360d01b6064820152fd5b8280fd5b8382346102a657816003193601126102a657610271610cff565b610279610d57565b8160085480156102a65781808092816008553382f11561029c5750600160065580f35b51903d90823e3d90fd5b5080fd5b8382346102a657806003193601126102a657806020926102c8610b86565b6102d0610ba1565b6001600160a01b0391821683526001865283832091168252845220549051908152f35b8382346102a657816003193601126102a65760209060ff6009541690519015158152f35b8382346102a65760203660031901126102a65760209181906001600160a01b0361033f610b86565b168152600b845220549051908152f35b8382346102a657806003193601126102a65760209061037961036f610b86565b6024359033610dad565b5160018152f35b8382346102a65760203660031901126102a6576020906103a66103a1610b86565b610c55565b9051908152f35b83346101835782600319360112610183576103c6610b86565b918360243592338152600160205281812060018060a01b03861682526020522054908282106103ff576020856103798585038733610f56565b608490602086519162461bcd60e51b8352820152602560248201527f45524332303a2064656372656173656420616c6c6f77616e63652062656c6f77604482015264207a65726f60d81b6064820152fd5b8382346102a657816003193601126102a657805190828454600181811c90808316928315610565575b60209384841081146105525783885290811561053657506001146104e1575b505050829003601f01601f191682019267ffffffffffffffff8411838510176104ce57508291826104ca925282610b3d565b0390f35b634e487b7160e01b815260418552602490fd5b8787529192508591837f8a35acfbc15ff81a39ae7d344fd709f28e8600b4aa8c65c6b64bfe7fe36bd19b5b8385106105225750505050830101858080610498565b80548886018301529301928490820161050c565b60ff1916878501525050151560051b8401019050858080610498565b634e487b7160e01b895260228a52602489fd5b91607f1691610479565b8382346102a657816003193601126102a65760055490516001600160a01b039091168152602090f35b83346101835780600319360112610183576105b1610cff565b600580546001600160a01b0319811690915581906001600160a01b03167f8be0079c531659141344cd1fd0a4f28419497f9722a3daafe3b4186f6b6457e08280a380f35b8382346102a65760203660031901126102a65760209181906001600160a01b0361061d610b86565b16815280845220549051908152f35b915060208060031936011261077357610643610b86565b6002549068056bc75e2d6310000061065b8334610bb7565b116107305761066c34600854610bb7565b6008556001600160a01b03169384156106ed57506106e89291610692600a923490610bb7565b60025584865285815282862034815401905584867fddf252ad1be2c89b69c2b068fc378daa952ba7f163c4a11628f55a4df523b3ef838651348152a36106da34600754610bda565b948652528320918254610ce6565b905580f35b835162461bcd60e51b8152908101839052601f60248201527f45524332303a206d696e7420746f20746865207a65726f2061646472657373006044820152606490fd5b835162461bcd60e51b8152808601849052601b60248201527f616d6f756e7420737572706173736573206d617820737570706c7900000000006044820152606490fd5b8380fd5b90915034610253578260031936011261025357610792610d57565b60ff600954166108235750816107a733610c55565b80159081156107ba575b82600160065580f35b828092918192338352600b6020528683206107d6838254610bb7565b905586518281527fee503bee2bb6a87e57bc57db795f98137327401a0e7b7ce42e37926cc1a9ca4d60203392a2829061081a575b3390f11561029c578181806107b1565b506108fc61080a565b6020606492519162461bcd60e51b8352820152601c60248201527f636f6e74726163742069732063757272656e746c79206c6f636b6564000000006044820152fd5b8382346102a657816003193601126102a6576020906008549051908152f35b8382346102a657806003193601126102a6576103796020926108cd6108a7610b86565b338352600186528483206001600160a01b03821684528652918490205460243590610bb7565b9033610f56565b8382346102a657816003193601126102a6576020905168056bc75e2d631000008152f35b8382346102a657816003193601126102a6576020905160128152f35b8382346102a65760203660031901126102a6576020906103a6610935610b86565b610ca0565b8390346102a65760603660031901126102a657610955610b86565b61095d610ba1565b91846044359460018060a01b038416815260016020528181203382526020522054906000198203610997575b602086610379878787610dad565b8482106109c057509183916109b56020969561037995033383610f56565b919394819350610989565b606490602087519162461bcd60e51b8352820152601d60248201527f45524332303a20696e73756666696369656e7420616c6c6f77616e63650000006044820152fd5b8382346102a657816003193601126102a6576020906002549051908152f35b8382346102a657806003193601126102a657602090610379610a42610b86565b6024359033610f56565b8382346102a657816003193601126102a65780519082600354600181811c90808316928315610b1c575b6020938484108114610552578388529081156105365750600114610ac657505050829003601f01601f191682019267ffffffffffffffff8411838510176104ce57508291826104ca925282610b3d565b600387529192508591837fc2575a0e9e593c00f959f8c92f12db2869c3395a3b0502d05e2516446f71f85b5b838510610b085750505050830101858080610498565b805488860183015293019284908201610af2565b91607f1691610a76565b838060031936011261018357610b3a610bed565b80f35b6020808252825181830181905290939260005b828110610b7257505060409293506000838284010152601f8019910116010190565b818101860151848201604001528501610b50565b600435906001600160a01b0382168203610b9c57565b600080fd5b602435906001600160a01b0382168203610b9c57565b91908201809211610bc457565b634e487b7160e01b600052601160045260246000fd5b81810292918115918404141715610bc457565b6002548015610b9c573415908115610c03575050565b3460801b91348304600160801b141715610bc457610c249104600754610bb7565b6007556040513481527fa493a9229478c3fcd73f66d2cdeb7f94fd0f341da924d1054236d7845411651160203392a2565b610c5e81610ca0565b6001600160a01b039091166000908152600b60205260409020548103908111610bc45790565b91909160008382019384129112908015821691151617610bc457565b6007546001600160a01b03909116600081815260208190526040902054610ce092610ccb9190610bda565b90600052600a60205260406000205490610c84565b60801c90565b81810392916000138015828513169184121617610bc457565b6005546001600160a01b03163303610d1357565b606460405162461bcd60e51b815260206004820152602060248201527f4f776e61626c653a2063616c6c6572206973206e6f7420746865206f776e65726044820152fd5b600260065414610d68576002600655565b60405162461bcd60e51b815260206004820152601f60248201527f5265656e7472616e637947756172643a207265656e7472616e742063616c6c006044820152606490fd5b6001600160a01b0390811692918315610f0357168015610eb25760009083825260209082825260409384842054818110610e5f5791610e3982869593600a958a610e5b9a9952878652038787205582865286862081815401905582897fddf252ad1be2c89b69c2b068fc378daa952ba7f163c4a11628f55a4df523b3ef868a51858152a3600754610bda565b968452828252848420610e4d888254610c84565b905583525220918254610ce6565b9055565b855162461bcd60e51b815260048101859052602660248201527f45524332303a207472616e7366657220616d6f756e7420657863656564732062604482015265616c616e636560d01b6064820152608490fd5b60405162461bcd60e51b815260206004820152602360248201527f45524332303a207472616e7366657220746f20746865207a65726f206164647260448201526265737360e81b6064820152608490fd5b60405162461bcd60e51b815260206004820152602560248201527f45524332303a207472616e736665722066726f6d20746865207a65726f206164604482015264647265737360d81b6064820152608490fd5b6001600160a01b039081169182156110075716918215610fb75760207f8c5be1e5ebec7d5bd14f71427d1e84f3dd0314c0f7b2291e5b200ac8c7c3b925918360005260018252604060002085600052825280604060002055604051908152a3565b60405162461bcd60e51b815260206004820152602260248201527f45524332303a20617070726f766520746f20746865207a65726f206164647265604482015261737360f01b6064820152608490fd5b60405162461bcd60e51b8152602060048201526024808201527f45524332303a20617070726f76652066726f6d20746865207a65726f206164646044820152637265737360e01b6064820152608490fdfea2646970667358221220aa6e89d015078f33a4a7c408b1cbd6fb8033c904c66600d979dea14560e1d6b064736f6c63430008120033",
    "sourcePath": "d:/web3/course-solidity-main/course-solidity/contracts/chapter-9/artist-coin/ArtistCoin.sol",
    "compiler": {
        "name": "solc",
        "version": "0.8.18+commit.87f61d96"
    },
    "functionHashes": {
        "MAX_SUPPLY()": "32cb6b0c",
        "accumulativeDividendOf(address)": "27ce0147",
        "allowance(address,address)": "dd62ed3e",
        "approve(address,uint256)": "095ea7b3",
        "balanceOf(address)": "70a08231",
        "collect()": "e5225381",
        "decimals()": "313ce567",
        "decreaseAllowance(address,uint256)": "a457c2d7",
        "distributeDividends()": "03c83302",
        "dividendOf(address)": "91b89fba",
        "increaseAllowance(address,uint256)": "39509351",
        "locked()": "cf309012",
        "mint(address)": "6a627842",
        "name()": "06fdde03",
        "owner()": "8da5cb5b",
        "ownerWithdrawable()": "3ec789cf",
        "renounceOwnership()": "715018a6",
        "symbol()": "95d89b41",
        "toggleLock()": "ff9413d8",
        "totalSupply()": "18160ddd",
        "transfer(address,uint256)": "a9059cbb",
        "transferFrom(address,address,uint256)": "23b872dd",
        "transferOwnership(address)": "f2fde38b",
        "withdrawDividend()": "6a474002",
        "withdrawableDividendOf(address)": "a8b9d240",
        "withdrawnDividendOf(address)": "aafd847a"
    },
    "gasEstimates": {
        "creation": {
            "codeDepositCost": "847600",
            "executionCost": "infinite",
            "totalCost": "infinite"
        },
        "external": {
            "MAX_SUPPLY()": "322",
            "accumulativeDividendOf(address)": "7044",
            "allowance(address,address)": "3051",
            "approve(address,uint256)": "24403",
            "balanceOf(address)": "2689",
            "collect()": "infinite",
            "decimals()": "300",
            "decreaseAllowance(address,uint256)": "27013",
            "distributeDividends()": "28039",
            "dividendOf(address)": "9515",
            "increaseAllowance(address,uint256)": "26845",
            "locked()": "2748",
            "mint(address)": "infinite",
            "name()": "infinite",
            "owner()": "2603",
            "ownerWithdrawable()": "2472",
            "renounceOwnership()": "28362",
            "symbol()": "infinite",
            "toggleLock()": "27094",
            "totalSupply()": "2340",
            "transfer(address,uint256)": "102125",
            "transferFrom(address,address,uint256)": "128342",
            "transferOwnership(address)": "28705",
            "withdrawDividend()": "infinite",
            "withdrawableDividendOf(address)": "9581",
            "withdrawnDividendOf(address)": "2865"
        },
        "internal": {
            "_burn(address,uint256)": "infinite",
            "_mint(address,uint256)": "infinite",
            "_transfer(address,address,uint256)": "infinite"
        }
    }
}