{
    "contractName": "ContractStructure",
    "abi": [
        {
            "inputs": [
                {
                    "internalType": "uint256",
                    "name": "_bal",
                    "type": "uint256"
                }
            ],
            "stateMutability": "nonpayable",
            "type": "constructor"
        },
        {
            "anonymous": false,
            "inputs": [
                {
                    "indexed": false,
                    "internalType": "uint256",
                    "name": "oldValue",
                    "type": "uint256"
                },
                {
                    "indexed": false,
                    "internalType": "uint256",
                    "name": "incre",
                    "type": "uint256"
                }
            ],
            "name": "BalanceAdded",
            "type": "event"
        },
        {
            "inputs": [
                {
                    "internalType": "uint256",
                    "name": "_incre",
                    "type": "uint256"
                }
            ],
            "name": "addBalance",
            "outputs": [],
            "stateMutability": "nonpayable",
            "type": "function"
        },
        {
            "inputs": [],
            "name": "balance",
            "outputs": [
                {
                    "internalType": "uint256",
                    "name": "",
                    "type": "uint256"
                }
            ],
            "stateMutability": "view",
            "type": "function"
        }
    ],
    "bytecode": "608034604d57601f61018638819003918201601f19168301916001600160401b03831184841017605157808492602094604052833981010312604d57515f5560405161012090816100668239f35b5f80fd5b634e487b7160e01b5f52604160045260245ffdfe60808060405260043610156011575f80fd5b5f3560e01c908163b69ef8a81460d3575063d91921ed14602f575f80fd5b3460cf57602036600319011260cf576004356064811115609d575f54818101908181116089577f2f59d1a3b7b985da630a67df5848afd649a7ac56a4f65c399458a7b1219d2556926040925f5582519182526020820152a1005b634e487b7160e01b5f52601160045260245ffd5b60405162461bcd60e51b815260206004820152600a602482015269746f6f20736d616c6c2160b01b6044820152606490fd5b5f80fd5b3460cf575f36600319011260cf576020905f548152f3fea2646970667358221220fc7a5f113037989d151129fcd8b1d2f8041f4ecc1530c072ff3128fd61e66f2564736f6c634300081c0033",
    "sourcePath": "d:/web3/course-solidity-main/course-solidity/contracts/chapter-2/ContractStructure.sol",
    "compiler": {
        "name": "solc",
        "version": "0.8.28+commit.7893614a"
    },
    "functionHashes": {
        "addBalance(uint256)": "d91921ed",
        "balance()": "b69ef8a8"
    },
    "gasEstimates": {
        "creation": {
            "codeDepositCost": "57600",
            "executionCost": "infinite",
            "totalCost": "infinite"
        },
        "external": {
            "addBalance(uint256)": "25728",
            "balance()": "2247"
        },
        "internal": {
            "balance1()": "infinite"
        }
    }
}